{
  "_format": "hh-sol-artifact-1",
  "contractName": "MatchingPennies",
  "sourceName": "contracts/MatchingPennies.sol",
  "abi": [
    {
      "anonymous": false,
      "inputs": [
        {
          "indexed": false,
          "internalType": "uint8",
          "name": "_gameId",
          "type": "uint8"
        },
        {
          "indexed": false,
          "internalType": "address",
          "name": "_player",
          "type": "address"
        },
        {
          "indexed": false,
          "internalType": "string",
          "name": "_notif",
          "type": "string"
        }
      ],
      "name": "GameComplete",
      "type": "event"
    },
    {
      "anonymous": false,
      "inputs": [
        {
          "indexed": false,
          "internalType": "uint8",
          "name": "_gameId",
          "type": "uint8"
        },
        {
          "indexed": false,
          "internalType": "address",
          "name": "_player",
          "type": "address"
        },
        {
          "indexed": false,
          "internalType": "string",
          "name": "_notif",
          "type": "string"
        }
      ],
      "name": "GameStatus",
      "type": "event"
    },
    {
      "inputs": [
        {
          "internalType": "bytes32",
          "name": "p1commitment",
          "type": "bytes32"
        }
      ],
      "name": "createGame",
      "outputs": [],
      "stateMutability": "payable",
      "type": "function"
    },
    {
      "inputs": [],
      "name": "gameInstance",
      "outputs": [
        {
          "internalType": "uint8",
          "name": "",
          "type": "uint8"
        }
      ],
      "stateMutability": "view",
      "type": "function"
    },
    {
      "inputs": [
        {
          "internalType": "uint8",
          "name": "",
          "type": "uint8"
        }
      ],
      "name": "gamesPlayed",
      "outputs": [
        {
          "internalType": "address",
          "name": "p1",
          "type": "address"
        },
        {
          "internalType": "uint256",
          "name": "p1payment",
          "type": "uint256"
        },
        {
          "internalType": "address",
          "name": "p2",
          "type": "address"
        },
        {
          "internalType": "uint256",
          "name": "p2payment",
          "type": "uint256"
        },
        {
          "internalType": "bytes32",
          "name": "p1commitment",
          "type": "bytes32"
        },
        {
          "internalType": "uint8",
          "name": "p2choice",
          "type": "uint8"
        },
        {
          "internalType": "address",
          "name": "winner",
          "type": "address"
        },
        {
          "internalType": "bool",
          "name": "gameComplete",
          "type": "bool"
        },
        {
          "internalType": "uint256",
          "name": "startStamp",
          "type": "uint256"
        }
      ],
      "stateMutability": "view",
      "type": "function"
    },
    {
      "inputs": [
        {
          "internalType": "uint8",
          "name": "gameId",
          "type": "uint8"
        },
        {
          "internalType": "uint8",
          "name": "choice",
          "type": "uint8"
        }
      ],
      "name": "joinGame",
      "outputs": [],
      "stateMutability": "payable",
      "type": "function"
    },
    {
      "inputs": [
        {
          "internalType": "uint8",
          "name": "gameId",
          "type": "uint8"
        },
        {
          "internalType": "string",
          "name": "p1vote",
          "type": "string"
        }
      ],
      "name": "playGame",
      "outputs": [],
      "stateMutability": "nonpayable",
      "type": "function"
    },
    {
      "inputs": [
        {
          "internalType": "uint8",
          "name": "gameId",
          "type": "uint8"
        }
      ],
      "name": "withdrawStake",
      "outputs": [],
      "stateMutability": "payable",
      "type": "function"
    },
    {
      "inputs": [
        {
          "internalType": "uint8",
          "name": "gameId",
          "type": "uint8"
        }
      ],
      "name": "withdrawWinnings",
      "outputs": [],
      "stateMutability": "payable",
      "type": "function"
    }
  ],
  "bytecode": "0x608060405234801561001057600080fd5b50612535806100206000396000f3fe6080604052600436106100705760003560e01c8063232265401161004e57806323226540146100f2578063457391e51461010e578063562593e01461012a5780639ea81f2b1461015557610070565b8063112eec861461007557806312147b391461009157806321712697146100d6575b600080fd5b61008f600480360381019061008a91906114b9565b61017e565b005b34801561009d57600080fd5b506100b860048036038101906100b391906114b9565b610404565b6040516100cd99989796959493929190611583565b60405180910390f35b6100f060048036038101906100eb91906114b9565b6104cc565b005b61010c60048036038101906101079190611610565b6109f0565b005b6101286004803603810190610123919061167c565b610ce0565b005b34801561013657600080fd5b5061013f610e97565b60405161014c91906116a9565b60405180910390f35b34801561016157600080fd5b5061017c60048036038101906101779190611729565b610eaa565b005b6000808260ff1660ff16815260200190815260200160002060050160019054906101000a900473ffffffffffffffffffffffffffffffffffffffff1673ffffffffffffffffffffffffffffffffffffffff163373ffffffffffffffffffffffffffffffffffffffff1614610227576040517f08c379a000000000000000000000000000000000000000000000000000000000815260040161021e9061180c565b60405180910390fd5b600015156000808360ff1660ff16815260200190815260200160002060050160159054906101000a900460ff16151514610296576040517f08c379a000000000000000000000000000000000000000000000000000000000815260040161028d9061189e565b60405180910390fd5b6000808260ff1660ff16815260200190815260200160002060050160019054906101000a900473ffffffffffffffffffffffffffffffffffffffff1673ffffffffffffffffffffffffffffffffffffffff166108fc6000808460ff1660ff168152602001908152602001600020600301546000808560ff1660ff1681526020019081526020016000206001015461032d91906118ed565b9081150290604051600060405180830381858888f19350505050158015610358573d6000803e3d6000fd5b5060016000808360ff1660ff16815260200190815260200160002060050160156101000a81548160ff0219169083151502179055507f68a4dd5d442bb8ff23dbbd46ea3b9410f7f66f002614a2db20ee1d06aa83bcd7816000808460ff1660ff16815260200190815260200160002060050160019054906101000a900473ffffffffffffffffffffffffffffffffffffffff166040516103f992919061196d565b60405180910390a150565b60006020528060005260406000206000915090508060000160009054906101000a900473ffffffffffffffffffffffffffffffffffffffff16908060010154908060020160009054906101000a900473ffffffffffffffffffffffffffffffffffffffff16908060030154908060040154908060050160009054906101000a900460ff16908060050160019054906101000a900473ffffffffffffffffffffffffffffffffffffffff16908060050160159054906101000a900460ff16908060060154905089565b600073ffffffffffffffffffffffffffffffffffffffff166000808360ff1660ff16815260200190815260200160002060000160009054906101000a900473ffffffffffffffffffffffffffffffffffffffff1673ffffffffffffffffffffffffffffffffffffffff1603610576576040517f08c379a000000000000000000000000000000000000000000000000000000000815260040161056d90611a1b565b60405180910390fd5b6000808260ff1660ff16815260200190815260200160002060000160009054906101000a900473ffffffffffffffffffffffffffffffffffffffff1673ffffffffffffffffffffffffffffffffffffffff163373ffffffffffffffffffffffffffffffffffffffff161480156106535750600073ffffffffffffffffffffffffffffffffffffffff166000808360ff1660ff16815260200190815260200160002060020160009054906101000a900473ffffffffffffffffffffffffffffffffffffffff1673ffffffffffffffffffffffffffffffffffffffff16145b1561079557601e6000808360ff1660ff1681526020019081526020016000206006015461068091906118ed565b42116106c1576040517f08c379a00000000000000000000000000000000000000000000000000000000081526004016106b890611aad565b60405180910390fd5b3373ffffffffffffffffffffffffffffffffffffffff166108fc6000808460ff1660ff168152602001908152602001600020600101549081150290604051600060405180830381858888f19350505050158015610722573d6000803e3d6000fd5b5060016000808360ff1660ff16815260200190815260200160002060050160156101000a81548160ff0219169083151502179055507f8191b0195a3cdb7c2c4048cb1ca4d58279a9a16a6590ce76134c539e838e18598133604051610788929190611b8b565b60405180910390a16109ed565b6000808260ff1660ff16815260200190815260200160002060020160009054906101000a900473ffffffffffffffffffffffffffffffffffffffff1673ffffffffffffffffffffffffffffffffffffffff163373ffffffffffffffffffffffffffffffffffffffff16036109ec57600015156000808360ff1660ff16815260200190815260200160002060050160159054906101000a900460ff16151514610872576040517f08c379a000000000000000000000000000000000000000000000000000000000815260040161086990611c5f565b60405180910390fd5b600073ffffffffffffffffffffffffffffffffffffffff166000808360ff1660ff16815260200190815260200160002060050160019054906101000a900473ffffffffffffffffffffffffffffffffffffffff1673ffffffffffffffffffffffffffffffffffffffff161461091c576040517f08c379a000000000000000000000000000000000000000000000000000000000815260040161091390611d63565b60405180910390fd5b3373ffffffffffffffffffffffffffffffffffffffff166108fc6000808460ff1660ff168152602001908152602001600020600301549081150290604051600060405180830381858888f1935050505015801561097d573d6000803e3d6000fd5b5060016000808360ff1660ff16815260200190815260200160002060050160156101000a81548160ff0219169083151502179055507f8191b0195a3cdb7c2c4048cb1ca4d58279a9a16a6590ce76134c539e838e185981336040516109e3929190611e1b565b60405180910390a15b5b50565b6000808360ff1660ff16815260200190815260200160002060000160009054906101000a900473ffffffffffffffffffffffffffffffffffffffff1673ffffffffffffffffffffffffffffffffffffffff163373ffffffffffffffffffffffffffffffffffffffff1603610a99576040517f08c379a0000000000000000000000000000000000000000000000000000000008152600401610a9090611ec9565b60405180910390fd5b600073ffffffffffffffffffffffffffffffffffffffff166000808460ff1660ff16815260200190815260200160002060020160009054906101000a900473ffffffffffffffffffffffffffffffffffffffff1673ffffffffffffffffffffffffffffffffffffffff1614610b43576040517f08c379a0000000000000000000000000000000000000000000000000000000008152600401610b3a90611f5b565b60405180910390fd5b600015156000808460ff1660ff16815260200190815260200160002060050160159054906101000a900460ff16151514610bb2576040517f08c379a0000000000000000000000000000000000000000000000000000000008152600401610ba990611fc7565b60405180910390fd5b336000808460ff1660ff16815260200190815260200160002060020160006101000a81548173ffffffffffffffffffffffffffffffffffffffff021916908373ffffffffffffffffffffffffffffffffffffffff160217905550600a3414610c4f576040517f08c379a0000000000000000000000000000000000000000000000000000000008152600401610c4690612059565b60405180910390fd5b346000808460ff1660ff16815260200190815260200160002060030181905550806000808460ff1660ff16815260200190815260200160002060050160006101000a81548160ff021916908360ff1602179055507f8191b0195a3cdb7c2c4048cb1ca4d58279a9a16a6590ce76134c539e838e18598233604051610cd49291906120c5565b60405180910390a15050565b6001600081819054906101000a900460ff16610cfb90612101565b91906101000a81548160ff021916908360ff16021790555033600080600160009054906101000a900460ff1660ff1660ff16815260200190815260200160002060000160006101000a81548173ffffffffffffffffffffffffffffffffffffffff021916908373ffffffffffffffffffffffffffffffffffffffff160217905550600a3414610dbf576040517f08c379a0000000000000000000000000000000000000000000000000000000008152600401610db690612059565b60405180910390fd5b34600080600160009054906101000a900460ff1660ff1660ff1681526020019081526020016000206001018190555080600080600160009054906101000a900460ff1660ff1660ff1681526020019081526020016000206004018190555042600080600160009054906101000a900460ff1660ff1660ff168152602001908152602001600020600601819055507f8191b0195a3cdb7c2c4048cb1ca4d58279a9a16a6590ce76134c539e838e1859600160009054906101000a900460ff1633604051610e8c929190612176565b60405180910390a150565b600160009054906101000a900460ff1681565b600073ffffffffffffffffffffffffffffffffffffffff166000808560ff1660ff16815260200190815260200160002060020160009054906101000a900473ffffffffffffffffffffffffffffffffffffffff1673ffffffffffffffffffffffffffffffffffffffff1603610f54576040517f08c379a0000000000000000000000000000000000000000000000000000000008152600401610f4b906121fe565b60405180910390fd5b6000808460ff1660ff16815260200190815260200160002060000160009054906101000a900473ffffffffffffffffffffffffffffffffffffffff1673ffffffffffffffffffffffffffffffffffffffff163373ffffffffffffffffffffffffffffffffffffffff1614610ffd576040517f08c379a0000000000000000000000000000000000000000000000000000000008152600401610ff49061226a565b60405180910390fd5b7f3100000000000000000000000000000000000000000000000000000000000000828260008181106110325761103161228a565b5b9050013560f81c60f81b7effffffffffffffffffffffffffffffffffffffffffffffffffffffffffffff191614806110c857507f30000000000000000000000000000000000000000000000000000000000000008282600081811061109a5761109961228a565b5b9050013560f81c60f81b7effffffffffffffffffffffffffffffffffffffffffffffffffffffffffffff1916145b6110d157600080fd5b6000808460ff1660ff1681526020019081526020016000206004015482826040516020016111009291906122f8565b6040516020818303038152906040528051906020012014611156576040517f08c379a000000000000000000000000000000000000000000000000000000000815260040161114d90612383565b60405180910390fd5b7f31000000000000000000000000000000000000000000000000000000000000008282600081811061118b5761118a61228a565b5b9050013560f81c60f81b7effffffffffffffffffffffffffffffffffffffffffffffffffffffffffffff19161480156111ef575060016000808560ff1660ff16815260200190815260200160002060050160009054906101000a900460ff1660ff16145b8061128f57507f30000000000000000000000000000000000000000000000000000000000000008282600081811061122a5761122961228a565b5b9050013560f81c60f81b7effffffffffffffffffffffffffffffffffffffffffffffffffffffffffffff191614801561128e575060008060008560ff1660ff16815260200190815260200160002060050160009054906101000a900460ff1660ff16145b5b1561136757336000808560ff1660ff16815260200190815260200160002060050160016101000a81548173ffffffffffffffffffffffffffffffffffffffff021916908373ffffffffffffffffffffffffffffffffffffffff1602179055507f8191b0195a3cdb7c2c4048cb1ca4d58279a9a16a6590ce76134c539e838e1859836000808660ff1660ff16815260200190815260200160002060050160019054906101000a900473ffffffffffffffffffffffffffffffffffffffff1660405161135a929190612415565b60405180910390a1611471565b6000808460ff1660ff16815260200190815260200160002060020160009054906101000a900473ffffffffffffffffffffffffffffffffffffffff166000808560ff1660ff16815260200190815260200160002060050160016101000a81548173ffffffffffffffffffffffffffffffffffffffff021916908373ffffffffffffffffffffffffffffffffffffffff1602179055507f8191b0195a3cdb7c2c4048cb1ca4d58279a9a16a6590ce76134c539e838e1859836000808660ff1660ff16815260200190815260200160002060050160019054906101000a900473ffffffffffffffffffffffffffffffffffffffff166040516114689291906124c3565b60405180910390a15b505050565b600080fd5b600080fd5b600060ff82169050919050565b61149681611480565b81146114a157600080fd5b50565b6000813590506114b38161148d565b92915050565b6000602082840312156114cf576114ce611476565b5b60006114dd848285016114a4565b91505092915050565b600073ffffffffffffffffffffffffffffffffffffffff82169050919050565b6000611511826114e6565b9050919050565b61152181611506565b82525050565b6000819050919050565b61153a81611527565b82525050565b6000819050919050565b61155381611540565b82525050565b61156281611480565b82525050565b60008115159050919050565b61157d81611568565b82525050565b600061012082019050611599600083018c611518565b6115a6602083018b611531565b6115b3604083018a611518565b6115c06060830189611531565b6115cd608083018861154a565b6115da60a0830187611559565b6115e760c0830186611518565b6115f460e0830185611574565b611602610100830184611531565b9a9950505050505050505050565b6000806040838503121561162757611626611476565b5b6000611635858286016114a4565b9250506020611646858286016114a4565b9150509250929050565b61165981611540565b811461166457600080fd5b50565b60008135905061167681611650565b92915050565b60006020828403121561169257611691611476565b5b60006116a084828501611667565b91505092915050565b60006020820190506116be6000830184611559565b92915050565b600080fd5b600080fd5b600080fd5b60008083601f8401126116e9576116e86116c4565b5b8235905067ffffffffffffffff811115611706576117056116c9565b5b602083019150836001820283011115611722576117216116ce565b5b9250929050565b60008060006040848603121561174257611741611476565b5b6000611750868287016114a4565b935050602084013567ffffffffffffffff8111156117715761177061147b565b5b61177d868287016116d3565b92509250509250925092565b600082825260208201905092915050565b7f4f6e6c79207468652077696e6e65722063616e2077697468647261772066756e60008201527f6473000000000000000000000000000000000000000000000000000000000000602082015250565b60006117f6602283611789565b91506118018261179a565b604082019050919050565b60006020820190508181036000830152611825816117e9565b9050919050565b7f546869732067616d65206973206f76657220616e642066756e6473206861766560008201527f206265656e2077697468647261776e0000000000000000000000000000000000602082015250565b6000611888602f83611789565b91506118938261182c565b604082019050919050565b600060208201905081810360008301526118b78161187b565b9050919050565b7f4e487b7100000000000000000000000000000000000000000000000000000000600052601160045260246000fd5b60006118f882611527565b915061190383611527565b925082820190508082111561191b5761191a6118be565b5b92915050565b7f57696e6e696e67732068617665206265656e2077697468647261776e00000000600082015250565b6000611957601c83611789565b915061196282611921565b602082019050919050565b60006060820190506119826000830185611559565b61198f6020830184611518565b81810360408301526119a08161194a565b90509392505050565b7f4e6f206f6e6520697320706c6179696e6720746869732067616d652e204e6f7460008201527f68696e6720746f20776974686472617700000000000000000000000000000000602082015250565b6000611a05603083611789565b9150611a10826119a9565b604082019050919050565b60006020820190508181036000830152611a34816119f8565b9050919050565b7f596f75206d757374207761697420666f72203330206265666f726520796f752060008201527f63616e20776974686472617720796f7572207374616b65000000000000000000602082015250565b6000611a97603783611789565b9150611aa282611a3b565b604082019050919050565b60006020820190508181036000830152611ac681611a8a565b9050919050565b7f506c61796572203220686173206e6f74206a6f696e65642077697468696e203360008201527f30207365636f6e647320616e6420506c617965722031206861732072656d6f7660208201527f6564207468656972207374616b652e20546869732067616d652068617320626560408201527f656e20766f696465640000000000000000000000000000000000000000000000606082015250565b6000611b75606983611789565b9150611b8082611acd565b608082019050919050565b6000606082019050611ba06000830185611559565b611bad6020830184611518565b8181036040830152611bbe81611b68565b90509392505050565b7f47616d6520697320636f6d706c6574652e20596f7572207374616b652063616e60008201527f6e6f742062652077697468647261776e2e205468652077696e6e6572206d617960208201527f20636c61696d2077696e6e696e67730000000000000000000000000000000000604082015250565b6000611c49604f83611789565b9150611c5482611bc7565b606082019050919050565b60006020820190508181036000830152611c7881611c3c565b9050919050565b7f5468652067616d6520686173206265656e20706c6179656420616e642061207760008201527f696e6e657220686173206265656e2073656c65637465642e20596f752063616e60208201527f6e6f742072656d6f766520796f7572207374616b652e20496620796f7520617260408201527f65207468652077696e6e65722c20796f752063616e2072656d6f766520796f7560608201527f722077696e6e696e677300000000000000000000000000000000000000000000608082015250565b6000611d4d608a83611789565b9150611d5882611c7f565b60a082019050919050565b60006020820190508181036000830152611d7c81611d40565b9050919050565b7f506c617965722032206861732072656d6f766564207468656972207374616b6560008201527f2066726f6d207468652067616d652e20506c6179657231206d61792072656d6f60208201527f7665207468656972207374616b65000000000000000000000000000000000000604082015250565b6000611e05604e83611789565b9150611e1082611d83565b606082019050919050565b6000606082019050611e306000830185611559565b611e3d6020830184611518565b8181036040830152611e4e81611df8565b90509392505050565b7f4120646966666572656e7420706c61796572206d757374206a6f696e2074686560008201527f2067616d65000000000000000000000000000000000000000000000000000000602082015250565b6000611eb3602583611789565b9150611ebe82611e57565b604082019050919050565b60006020820190508181036000830152611ee281611ea6565b9050919050565b7f506c61796572322068617320616c7265616479206a6f696e65642e2047616d6560008201527f2069732066756c6c000000000000000000000000000000000000000000000000602082015250565b6000611f45602883611789565b9150611f5082611ee9565b604082019050919050565b60006020820190508181036000830152611f7481611f38565b9050919050565b7f47616d65206973206f7665722e2053746172742061206e65772067616d650000600082015250565b6000611fb1601e83611789565b9150611fbc82611f7b565b602082019050919050565b60006020820190508181036000830152611fe081611fa4565b9050919050565b7f596f75206e65656420746f206465706f7369742031302057454920696e20746860008201527f6520706f74000000000000000000000000000000000000000000000000000000602082015250565b6000612043602583611789565b915061204e82611fe7565b604082019050919050565b6000602082019050818103600083015261207281612036565b9050919050565b7f506c61796572203220686173206a6f696e656400000000000000000000000000600082015250565b60006120af601383611789565b91506120ba82612079565b602082019050919050565b60006060820190506120da6000830185611559565b6120e76020830184611518565b81810360408301526120f8816120a2565b90509392505050565b600061210c82611480565b915060ff820361211f5761211e6118be565b5b600182019050919050565b7f506c61796572312068617320737461727465642067616d650000000000000000600082015250565b6000612160601883611789565b915061216b8261212a565b602082019050919050565b600060608201905061218b6000830185611559565b6121986020830184611518565b81810360408301526121a981612153565b90509392505050565b7f506c6179657232206d7573742063616c6c206a6f696e47616d65000000000000600082015250565b60006121e8601a83611789565b91506121f3826121b2565b602082019050919050565b60006020820190508181036000830152612217816121db565b9050919050565b7f4f6e6c7920706c61796572312063616e207374617274207468652067616d6500600082015250565b6000612254601f83611789565b915061225f8261221e565b602082019050919050565b6000602082019050818103600083015261228381612247565b9050919050565b7f4e487b7100000000000000000000000000000000000000000000000000000000600052603260045260246000fd5b600081905092915050565b82818337600083830152505050565b60006122df83856122b9565b93506122ec8385846122c4565b82840190509392505050565b60006123058284866122d3565b91508190509392505050565b7f596f757220766f746520646f6573206e6f74206d61746368206f726967696e6160008201527f6c20636f6d6d69746d656e740000000000000000000000000000000000000000602082015250565b600061236d602c83611789565b915061237882612311565b604082019050919050565b6000602082019050818103600083015261239c81612360565b9050919050565b7f5468652067616d652068617320656e6465642e20506c61796572312063616e2060008201527f6e6f772077697468647261772074686569722077696e6e696e67730000000000602082015250565b60006123ff603b83611789565b915061240a826123a3565b604082019050919050565b600060608201905061242a6000830185611559565b6124376020830184611518565b8181036040830152612448816123f2565b90509392505050565b7f5468652067616d652068617320656e6465642e20506c61796572322063616e2060008201527f6e6f772077697468647261772074686569722077696e6e696e67730000000000602082015250565b60006124ad603b83611789565b91506124b882612451565b604082019050919050565b60006060820190506124d86000830185611559565b6124e56020830184611518565b81810360408301526124f6816124a0565b9050939250505056fea26469706673582212208239d906927f1b4232673693404fe5a619cef996ceae0d36ce772982c8ba391364736f6c63430008110033",
  "linkReferences": {},
  "deployedLinkReferences": {}
}